{
  "contractName": "Auction",
  "abi": [
    {
      "inputs": [
        {
          "internalType": "uint256",
          "name": "baseprice",
          "type": "uint256"
        },
        {
          "internalType": "address",
          "name": "seller",
          "type": "address"
        },
        {
          "internalType": "uint256",
          "name": "duration",
          "type": "uint256"
        }
      ],
      "stateMutability": "nonpayable",
      "type": "constructor"
    },
    {
      "inputs": [
        {
          "internalType": "string",
          "name": "str",
          "type": "string"
        }
      ],
      "name": "auctionalreadyended",
      "type": "error"
    },
    {
      "inputs": [
        {
          "internalType": "string",
          "name": "s",
          "type": "string"
        }
      ],
      "name": "auctionnotended",
      "type": "error"
    },
    {
      "inputs": [
        {
          "internalType": "uint256",
          "name": "bid",
          "type": "uint256"
        },
        {
          "internalType": "string",
          "name": "message",
          "type": "string"
        }
      ],
      "name": "bidnotminimum",
      "type": "error"
    },
    {
      "inputs": [
        {
          "internalType": "string",
          "name": "s",
          "type": "string"
        }
      ],
      "name": "endcalled",
      "type": "error"
    },
    {
      "inputs": [
        {
          "internalType": "string",
          "name": "s",
          "type": "string"
        }
      ],
      "name": "notallowed",
      "type": "error"
    },
    {
      "anonymous": false,
      "inputs": [
        {
          "indexed": false,
          "internalType": "address",
          "name": "winner",
          "type": "address"
        },
        {
          "indexed": false,
          "internalType": "uint256",
          "name": "bid",
          "type": "uint256"
        }
      ],
      "name": "AuctionEnded",
      "type": "event"
    },
    {
      "anonymous": false,
      "inputs": [
        {
          "indexed": false,
          "internalType": "address",
          "name": "bidder",
          "type": "address"
        },
        {
          "indexed": false,
          "internalType": "uint256",
          "name": "bid",
          "type": "uint256"
        }
      ],
      "name": "HighestBidIncr",
      "type": "event"
    },
    {
      "inputs": [],
      "name": "admin",
      "outputs": [
        {
          "internalType": "address",
          "name": "",
          "type": "address"
        }
      ],
      "stateMutability": "view",
      "type": "function",
      "constant": true
    },
    {
      "inputs": [],
      "name": "auctioneer",
      "outputs": [
        {
          "internalType": "address payable",
          "name": "",
          "type": "address"
        }
      ],
      "stateMutability": "view",
      "type": "function",
      "constant": true
    },
    {
      "inputs": [],
      "name": "auctionendtime",
      "outputs": [
        {
          "internalType": "uint256",
          "name": "",
          "type": "uint256"
        }
      ],
      "stateMutability": "view",
      "type": "function",
      "constant": true
    },
    {
      "inputs": [],
      "name": "basePrice",
      "outputs": [
        {
          "internalType": "uint256",
          "name": "",
          "type": "uint256"
        }
      ],
      "stateMutability": "view",
      "type": "function",
      "constant": true
    },
    {
      "inputs": [],
      "name": "highestbid",
      "outputs": [
        {
          "internalType": "uint256",
          "name": "",
          "type": "uint256"
        }
      ],
      "stateMutability": "view",
      "type": "function",
      "constant": true
    },
    {
      "inputs": [],
      "name": "highestbidder",
      "outputs": [
        {
          "internalType": "address",
          "name": "",
          "type": "address"
        }
      ],
      "stateMutability": "view",
      "type": "function",
      "constant": true
    },
    {
      "inputs": [],
      "name": "bid",
      "outputs": [],
      "stateMutability": "payable",
      "type": "function",
      "payable": true
    },
    {
      "inputs": [],
      "name": "withdraw",
      "outputs": [
        {
          "internalType": "bool",
          "name": "",
          "type": "bool"
        }
      ],
      "stateMutability": "nonpayable",
      "type": "function"
    },
    {
      "inputs": [],
      "name": "auctionend",
      "outputs": [],
      "stateMutability": "nonpayable",
      "type": "function"
    },
    {
      "inputs": [],
      "name": "cancelauction",
      "outputs": [],
      "stateMutability": "nonpayable",
      "type": "function"
    }
  ],
  "bytecode": "0x60806040523480156200001157600080fd5b506040516200166f3803806200166f833981810160405281019062000037919062000181565b336000806101000a81548173ffffffffffffffffffffffffffffffffffffffff021916908373ffffffffffffffffffffffffffffffffffffffff16021790555081600160006101000a81548173ffffffffffffffffffffffffffffffffffffffff021916908373ffffffffffffffffffffffffffffffffffffffff160217905550826002819055508042620000cd91906200020c565b60058190555050505062000247565b600080fd5b6000819050919050565b620000f681620000e1565b81146200010257600080fd5b50565b6000815190506200011681620000eb565b92915050565b600073ffffffffffffffffffffffffffffffffffffffff82169050919050565b600062000149826200011c565b9050919050565b6200015b816200013c565b81146200016757600080fd5b50565b6000815190506200017b8162000150565b92915050565b6000806000606084860312156200019d576200019c620000dc565b5b6000620001ad8682870162000105565b9350506020620001c0868287016200016a565b9250506040620001d38682870162000105565b9150509250925092565b7f4e487b7100000000000000000000000000000000000000000000000000000000600052601160045260246000fd5b60006200021982620000e1565b91506200022683620000e1565b9250828201905080821115620002415762000240620001dd565b5b92915050565b61141880620002576000396000f3fe6080604052600436106100915760003560e01c8063a6a55d7111610059578063a6a55d711461014c578063b9d1fb6114610163578063c7876ea41461017a578063dcbfb0ff146101a5578063f851a440146101d057610091565b80631998aeef146100965780633ad08463146100a05780633ccfd60b146100cb57806341709bcb146100f65780635ec2c7bf14610121575b600080fd5b61009e6101fb565b005b3480156100ac57600080fd5b506100b56105f2565b6040516100c29190610e97565b60405180910390f35b3480156100d757600080fd5b506100e06105f8565b6040516100ed9190610ecd565b60405180910390f35b34801561010257600080fd5b5061010b61083f565b6040516101189190610e97565b60405180910390f35b34801561012d57600080fd5b50610136610845565b6040516101439190610f29565b60405180910390f35b34801561015857600080fd5b5061016161086b565b005b34801561016f57600080fd5b50610178610afa565b005b34801561018657600080fd5b5061018f610e2e565b60405161019c9190610e97565b60405180910390f35b3480156101b157600080fd5b506101ba610e34565b6040516101c79190610f65565b60405180910390f35b3480156101dc57600080fd5b506101e5610e5a565b6040516101f29190610f65565b60405180910390f35b3360008054906101000a900473ffffffffffffffffffffffffffffffffffffffff1673ffffffffffffffffffffffffffffffffffffffff168173ffffffffffffffffffffffffffffffffffffffff160361028a576040517f3206ab9d00000000000000000000000000000000000000000000000000000000815260040161028190611003565b60405180910390fd5b33600160009054906101000a900473ffffffffffffffffffffffffffffffffffffffff1673ffffffffffffffffffffffffffffffffffffffff168173ffffffffffffffffffffffffffffffffffffffff160361031b576040517f3206ab9d00000000000000000000000000000000000000000000000000000000815260040161031290611095565b60405180910390fd5b600554421115610360576040517f8f42acbf00000000000000000000000000000000000000000000000000000000815260040161035790611101565b60405180910390fd5b60025434600660003373ffffffffffffffffffffffffffffffffffffffff1673ffffffffffffffffffffffffffffffffffffffff168152602001908152602001600020546103ae9190611150565b10156103f3576002546040517f71be12ab0000000000000000000000000000000000000000000000000000000081526004016103ea91906111d0565b60405180910390fd5b60045434600660003373ffffffffffffffffffffffffffffffffffffffff1673ffffffffffffffffffffffffffffffffffffffff168152602001908152602001600020546104419190611150565b11610485576004546040517f71be12ab00000000000000000000000000000000000000000000000000000000815260040161047c91906111d0565b60405180910390fd5b60006004541461050a5760045460066000600360009054906101000a900473ffffffffffffffffffffffffffffffffffffffff1673ffffffffffffffffffffffffffffffffffffffff1673ffffffffffffffffffffffffffffffffffffffff16815260200190815260200160002060008282546105029190611150565b925050819055505b33600360006101000a81548173ffffffffffffffffffffffffffffffffffffffff021916908373ffffffffffffffffffffffffffffffffffffffff160217905550346004819055506007339080600181540180825580915050600190039060005260206000200160009091909190916101000a81548173ffffffffffffffffffffffffffffffffffffffff021916908373ffffffffffffffffffffffffffffffffffffffff1602179055507f0d74ab828ff955304266cd09d67ade68bb2bf26eb6111f34ce1c0ab099affc6c33346040516105e69291906111fe565b60405180910390a15050565b60045481565b60003360008054906101000a900473ffffffffffffffffffffffffffffffffffffffff1673ffffffffffffffffffffffffffffffffffffffff168173ffffffffffffffffffffffffffffffffffffffff1603610689576040517f3206ab9d00000000000000000000000000000000000000000000000000000000815260040161068090611003565b60405180910390fd5b33600160009054906101000a900473ffffffffffffffffffffffffffffffffffffffff1673ffffffffffffffffffffffffffffffffffffffff168173ffffffffffffffffffffffffffffffffffffffff160361071a576040517f3206ab9d00000000000000000000000000000000000000000000000000000000815260040161071190611095565b60405180910390fd5b6000600660003373ffffffffffffffffffffffffffffffffffffffff1673ffffffffffffffffffffffffffffffffffffffff1681526020019081526020016000205490506000811115610834576000600660003373ffffffffffffffffffffffffffffffffffffffff1673ffffffffffffffffffffffffffffffffffffffff168152602001908152602001600020819055503373ffffffffffffffffffffffffffffffffffffffff166108fc829081150290604051600060405180830381858888f193505050506108335780600660003373ffffffffffffffffffffffffffffffffffffffff1673ffffffffffffffffffffffffffffffffffffffff16815260200190815260200160002081905550600093505061083a565b5b60019350505b505090565b60055481565b600160009054906101000a900473ffffffffffffffffffffffffffffffffffffffff1681565b3360008054906101000a900473ffffffffffffffffffffffffffffffffffffffff1673ffffffffffffffffffffffffffffffffffffffff168173ffffffffffffffffffffffffffffffffffffffff16036108fa576040517f3206ab9d0000000000000000000000000000000000000000000000000000000081526004016108f190611003565b60405180910390fd5b33600160009054906101000a900473ffffffffffffffffffffffffffffffffffffffff1673ffffffffffffffffffffffffffffffffffffffff168173ffffffffffffffffffffffffffffffffffffffff160361098b576040517f3206ab9d00000000000000000000000000000000000000000000000000000000815260040161098290611095565b60405180910390fd5b6005544211156109d0576040517f8f42acbf0000000000000000000000000000000000000000000000000000000081526004016109c790611273565b60405180910390fd5b60005b600780549050811015610af557600781815481106109f4576109f3611293565b5b9060005260206000200160009054906101000a900473ffffffffffffffffffffffffffffffffffffffff1673ffffffffffffffffffffffffffffffffffffffff166108fc6006600060078581548110610a5057610a4f611293565b5b9060005260206000200160009054906101000a900473ffffffffffffffffffffffffffffffffffffffff1673ffffffffffffffffffffffffffffffffffffffff1673ffffffffffffffffffffffffffffffffffffffff168152602001908152602001600020549081150290604051600060405180830381858888f19350505050158015610ae1573d6000803e3d6000fd5b508080610aed906112c2565b9150506109d3565b505050565b600554421015610b3f576040517f2b818d43000000000000000000000000000000000000000000000000000000008152600401610b3690611356565b60405180910390fd5b600860009054906101000a900460ff1615610b8f576040517f64776b27000000000000000000000000000000000000000000000000000000008152600401610b86906113c2565b60405180910390fd5b6001600860006101000a81548160ff0219169083151502179055507fdaec4582d5d9595688c8c98545fdd1c696d41c6aeaeb636737e84ed2f5c00eda600360009054906101000a900473ffffffffffffffffffffffffffffffffffffffff16600454604051610bff9291906111fe565b60405180910390a1600160009054906101000a900473ffffffffffffffffffffffffffffffffffffffff1673ffffffffffffffffffffffffffffffffffffffff166108fc6004549081150290604051600060405180830381858888f19350505050158015610c71573d6000803e3d6000fd5b5060005b600780549050811015610e2b57600360009054906101000a900473ffffffffffffffffffffffffffffffffffffffff1673ffffffffffffffffffffffffffffffffffffffff1660078281548110610ccf57610cce611293565b5b9060005260206000200160009054906101000a900473ffffffffffffffffffffffffffffffffffffffff1673ffffffffffffffffffffffffffffffffffffffff1614610e185760078181548110610d2957610d28611293565b5b9060005260206000200160009054906101000a900473ffffffffffffffffffffffffffffffffffffffff1673ffffffffffffffffffffffffffffffffffffffff166108fc6006600060078581548110610d8557610d84611293565b5b9060005260206000200160009054906101000a900473ffffffffffffffffffffffffffffffffffffffff1673ffffffffffffffffffffffffffffffffffffffff1673ffffffffffffffffffffffffffffffffffffffff168152602001908152602001600020549081150290604051600060405180830381858888f19350505050158015610e16573d6000803e3d6000fd5b505b8080610e23906112c2565b915050610c75565b50565b60025481565b600360009054906101000a900473ffffffffffffffffffffffffffffffffffffffff1681565b60008054906101000a900473ffffffffffffffffffffffffffffffffffffffff1681565b6000819050919050565b610e9181610e7e565b82525050565b6000602082019050610eac6000830184610e88565b92915050565b60008115159050919050565b610ec781610eb2565b82525050565b6000602082019050610ee26000830184610ebe565b92915050565b600073ffffffffffffffffffffffffffffffffffffffff82169050919050565b6000610f1382610ee8565b9050919050565b610f2381610f08565b82525050565b6000602082019050610f3e6000830184610f1a565b92915050565b6000610f4f82610ee8565b9050919050565b610f5f81610f44565b82525050565b6000602082019050610f7a6000830184610f56565b92915050565b600082825260208201905092915050565b7f746869732066756e6374696f6e616c697479206973206e6f7420616c6c6f776560008201527f6420666f722041646d696e000000000000000000000000000000000000000000602082015250565b6000610fed602b83610f80565b9150610ff882610f91565b604082019050919050565b6000602082019050818103600083015261101c81610fe0565b9050919050565b7f746869732066756e6374696f6e616c697479206973206e6f7420666f7220617560008201527f6374696f6e656572000000000000000000000000000000000000000000000000602082015250565b600061107f602883610f80565b915061108a82611023565b604082019050919050565b600060208201905081810360008301526110ae81611072565b9050919050565b7f41756374696f6e2068617320616c726561647920656e64656400000000000000600082015250565b60006110eb601983610f80565b91506110f6826110b5565b602082019050919050565b6000602082019050818103600083015261111a816110de565b9050919050565b7f4e487b7100000000000000000000000000000000000000000000000000000000600052601160045260246000fd5b600061115b82610e7e565b915061116683610e7e565b925082820190508082111561117e5761117d611121565b5b92915050565b7f6d696e696d756d20626964206e65656465640000000000000000000000000000600082015250565b60006111ba601283610f80565b91506111c582611184565b602082019050919050565b60006040820190506111e56000830184610e88565b81810360208301526111f6816111ad565b905092915050565b60006040820190506112136000830185610f56565b6112206020830184610e88565b9392505050565b7f61756369746f6e2068617320616c726561647920656e64656400000000000000600082015250565b600061125d601983610f80565b915061126882611227565b602082019050919050565b6000602082019050818103600083015261128c81611250565b9050919050565b7f4e487b7100000000000000000000000000000000000000000000000000000000600052603260045260246000fd5b60006112cd82610e7e565b91507fffffffffffffffffffffffffffffffffffffffffffffffffffffffffffffffff82036112ff576112fe611121565b5b600182019050919050565b7f61756374696f6e206973206e6f7420656e646564207965740000000000000000600082015250565b6000611340601883610f80565b915061134b8261130a565b602082019050919050565b6000602082019050818103600083015261136f81611333565b9050919050565b7f656e642061756374696f6e20616c72656164792063616c6c6564000000000000600082015250565b60006113ac601a83610f80565b91506113b782611376565b602082019050919050565b600060208201905081810360008301526113db8161139f565b905091905056fea2646970667358221220286a3ac97152af7e48fd353a190c66c6a92fbc79c5c20fa6a3446f3293f2eb6e64736f6c63430008120033",
  "immutableReferences": {},
  "source": "// SPDX-License-Identifier: UNLICENSED\r\n\r\npragma solidity ^0.8.18;\r\n\r\ncontract Auction\r\n{\r\n    address public admin;\r\n    address payable public auctioneer;\r\n    uint public basePrice;\r\n    \r\n\r\n    address public highestbidder;\r\n    uint public highestbid;\r\n\r\n    uint public auctionendtime;\r\n\r\n    mapping(address => uint) biddetails;\r\n    address payable[] biddersaddress;\r\n\r\n    bool ended;\r\n\r\n    event HighestBidIncr(address bidder,uint bid);\r\n    event AuctionEnded(address winner,uint bid);\r\n\r\n    error auctionalreadyended(string str);\r\n    error bidnotminimum(uint bid,string message);\r\n    error auctionnotended(string s);\r\n    error endcalled(string s);\r\n    error notallowed(string s);\r\n\r\n    modifier checkseller(address adminadr)\r\n    {\r\n        if(adminadr == auctioneer)\r\n        {\r\n            revert notallowed(\"this functionality is not for auctioneer\");\r\n        }\r\n        _;\r\n    }\r\n\r\n    modifier checkowner(address adr)\r\n    {\r\n        if(adr == admin)\r\n        {\r\n            revert notallowed(\"this functionality is not allowed for Admin\");\r\n        }\r\n        _;\r\n    }\r\n\r\n    modifier checknotowner(address adr)\r\n    {\r\n        if(adr !=admin)\r\n        {\r\n            revert notallowed(\"this functionalities is only for Admin\");\r\n        }\r\n        _;\r\n    }\r\n\r\n    constructor(uint baseprice,address seller,uint duration)\r\n    {\r\n        admin = msg.sender;\r\n        auctioneer = payable(seller);\r\n        basePrice = baseprice;\r\n        auctionendtime = block.timestamp + duration;\r\n    }\r\n\r\n\r\n  \r\n\r\n    function bid() external payable checkowner(msg.sender) checkseller(msg.sender) {\r\n        \r\n        if(block.timestamp > auctionendtime)\r\n        {\r\n            revert auctionalreadyended(\"Auction has already ended\");\r\n        }\r\n        if(biddetails[msg.sender]+msg.value < basePrice)\r\n        {\r\n            revert bidnotminimum(basePrice,\"minimum bid needed\");\r\n        }\r\n        if((biddetails[msg.sender]+msg.value) <= highestbid)\r\n        {\r\n            revert bidnotminimum(highestbid,\"minimum bid needed\");\r\n        }\r\n        if(highestbid !=0)\r\n        {\r\n            biddetails[highestbidder] +=highestbid;\r\n        }\r\n        highestbidder = msg.sender;\r\n        highestbid = msg.value;\r\n        biddersaddress.push(payable(msg.sender));\r\n        emit HighestBidIncr(msg.sender,msg.value);\r\n    }\r\n    function withdraw() external checkowner(msg.sender) checkseller(msg.sender) returns(bool)\r\n    {\r\n        uint amount = biddetails[msg.sender];\r\n        if(amount>0)\r\n        {\r\n            biddetails[msg.sender] = 0;\r\n            if(!payable(msg.sender).send(amount))\r\n            {\r\n                biddetails[msg.sender] = amount;\r\n                return false;\r\n            }\r\n        }\r\n        return true;\r\n    }\r\n\r\n    function auctionend() external\r\n    {\r\n        if(block.timestamp < auctionendtime)\r\n        {\r\n            revert auctionnotended(\"auction is not ended yet\");\r\n        }\r\n        if(ended)\r\n        {\r\n            revert endcalled(\"end auction already called\");\r\n        }\r\n\r\n        ended = true;\r\n        emit AuctionEnded(highestbidder,highestbid);\r\n\r\n        auctioneer.transfer(highestbid);\r\n        for(uint i=0;i<biddersaddress.length;i++)\r\n        {\r\n            if(biddersaddress[i] != highestbidder)\r\n            {\r\n                biddersaddress[i].transfer(biddetails[biddersaddress[i]]);\r\n            }\r\n        }\r\n    }\r\n\r\n    function cancelauction() external checkowner(msg.sender) checkseller(msg.sender)\r\n    {\r\n        if(block.timestamp > auctionendtime)\r\n        {\r\n            revert auctionalreadyended(\"auciton has already ended\");\r\n        }\r\n        for(uint i=0;i<biddersaddress.length;i++)\r\n        {\r\n            // biddetails[biddersaddress[i]].transfer(biddetails)\r\n            biddersaddress[i].transfer(biddetails[biddersaddress[i]]);\r\n        }\r\n    }\r\n\r\n}",
  "sourcePath": "C:\\Users\\Shubham\\OneDrive\\Desktop\\Auction\\contracts\\Auction.sol",
  "compiler": {
    "name": "solc",
    "version": "0.8.18+commit.87f61d96.Emscripten.clang"
  },
  "schemaVersion": "3.4.12",
  "updatedAt": "2023-02-27T19:38:09.593Z",
  "networkType": "ethereum",
  "devdoc": {
    "kind": "dev",
    "methods": {},
    "version": 1
  },
  "userdoc": {
    "kind": "user",
    "methods": {},
    "version": 1
  }
}